:020000006B286B
:100008007E1480310B1C09280A2834282700131E67
:100018000E280F2834281312A330F4005530890B0A
:100028001328F40B1328000020000C1E1C281D2880
:1000380021280130A2000030A3000C1A242825280A
:10004800342822000C152000A201A301B201B3013B
:10005800F7019601970111102100111420001814BE
:100068002000111C38283928692811100130F400A3
:100078007408F70707307702031C432844286928C7
:100088008131452180317108F6007008F5002000A3
:1000980035087602031D522834087502031C5528BA
:1000A8005628602822000C11A330F4005530890B23
:1000B8005B28F40B5B2800002000181021001110A9
:1000C80001302000B2000030B3007E1009006C2817
:1000D8005930840081308500303086000030870038
:1000E8001030813169218031F501F601F701F801FD
:1000F8002030840000308500103081316F2180313C
:100108007E10200087285A30210099009914640035
:10011800213021008C00013023008C0022008C014A
:100128000C112100951324000C16640023000C14F4
:100138008F3021009E05FC309E059E1383309D055F
:1001480022009D1021008C110C1122000C15210099
:100158000C1627001112121613120B108B153F30B4
:100168002000980530309804181021001110200044
:1001780011100B178B1701302000AE070030AF3D70
:100188002E082F040319C928CA28BF2832033304AC
:10019800031DCF28D028BF28AE01AF0181313021FF
:1001A800803120004108F6004008F5000030760252
:1001B800F13003197502031CE228E328E62822001F
:1001C8000C11BF2835087602031DEC283408750287
:1001D8000318EF28F028FE2822000C152000A201A1
:1001E800A301A3302000C4005530890BF928C40BA3
:1001F800F928BF28A3302000C4005530890B0229F4
:10020800C40B022920000C1A0A290B292E292200C6
:100218000C152000A201A301B201B301A3302000F4
:10022800C4005530890B1629C40B162922000C115D
:1002380001302000A2000030A3000130B2000030DD
:10024800B300F70196019701111021001114200045
:100258001814BF28BF286B2821001D14A630890B4D
:100268003329003221009D149D183B293C29382947
:100278001C082000C200C3014208C0004308C10096
:10028800080021001D14A630890B482900322100DE
:100298009D149D18502951294D291C08F200F3017D
:1002A8007208F0007308F10008000A3400340134C1
:1002B8000034BE340034F03400340F340034FF34DA
:1002C80000340434003401340034FE0012001E00EF
:1002D800FE0B6A290034640080010131890B702902
:0202E8000034E0
:020000040001F9
:08000000FF3FFF3FFF3FFF3F00
:04000E00E43FFF1FAD
:00000001FF
