:08000000803102288731DE2F58
:100E4E005D344E34283400340134003421001D1436
:100E5E00A630890B302F003221009D149D18382F9B
:100E6E00392F352F1C08F8001B08F7000800FA016F
:100E7E00FB014D2F64000430F9003E30890B452FE5
:100E8E00F90B452F0130FA070030FB3D78087B0245
:100E9E00031D532F77087A02031C562F572F412F0D
:100EAE000800640021009515073095048B0191010F
:100EBE00200091015A3021009900991401308C00C4
:100ECE0022008C0123000C148F3021009E05FC3073
:100EDE009E059E1783309D0522009D1021008C11CA
:100EEE0022000C1587312D27873177082000A400AA
:100EFE0022000C110130F7000030F80087313E2738
:100F0E0087310130F2070030F33D0130F007003039
:100F1E00F13D22008C106300000072087304031967
:100F2E00992F9A2FC12FF201F30122008C148731D1
:100F3E002D2787317708F60022008C104E3076026E
:100F4E000318AA2FAB2FAF2FF401F40A0C15B62FEE
:100F5E005E307602031CB42FB52FB62F0C11200075
:100F6E00240876020318BC2FBD2FBF2FF501F50AFA
:100F7E007608A40000307102283003197002031C99
:100F8E00C92FCA2F882FF001F1017508031DD02F2C
:100F9E00D12FDA2F22000C110A30F7000030F800A2
:100FAE0087313E278731F501882F8031022887311E
:100FBE0027278731FC00873128278731FD008731AD
:100FCE0029278731A00087312A278731A100873151
:100FDE002B278731A20087312C278731A300F00100
:100FEE00F101F201F301F401F501F6012000873160
:020FFE00582F6A
:020000040001F9
:08000000FF3FFF3FFF3FFF3F00
:04000E00FC3FFF1F95
:00000001FF
